:100E42001E303F065B4F666D7D077F6F777C395E94
:100E52007971BF86DBCFE6EDFD87FFEF7673004049
:100E6200046C000000001050001C001C001C001C40
:100E7200001C001C001C001C046800000000026032
:100E82000064012D00017000012C14022E0000C12B
:100E920006C104C105C183C100C107C101C182C12C
:010EA2000847
:10107A00D3EF9400EE940040147D6E7C00ED1D7059
:0D108A00011CED4C70F7EF1F70E61E80E3B7
:011097002236
:0F10D200D2A07F017E001210E1D2A17F017E002B
:0B10E100EF1FAC0670011E4C70F622E1
:100D5F0020B1037F112220B0037F122220B3037F23
:100D6F00142230065AC291D292D293D294D29520A5
:100D7F0094037F0F222095037F0B222096037F077A
:100D8F00222097037F0322D291C2922094037F0ED9
:100D9F00222095037F0A222096037F0622209703A5
:100DAF007F0222D292C2932094037F0D22209503BB
:100DBF007F09222096037F05222097037F01227F40
:020DCF00002200
:1010EC00C2B77F4B7E001210E1D2B77F027E0002A6
:0210FC0010E101
:100EA400E4FD30B710EDC394147480948050060DA3
:100EB4001210DD80EDEDC394147480948040037FA0
:100EC4000122E4FD20B710EDC39414748094805083
:100ED400060D1210DD80EDC3ED94147480948040EF
:060EE400037F01227F00E4
:010EEA0022E5
:1010B600E4FDC2B70000D2B7000030B7030D8002CE
:0B10C600E4FD7F057E001210E1AF0585
:0110D10022FC
:10103200E4FBFAFFEBC394087480948050131210FF
:10104200B6EFC43333335480FEEAC3134EFA0B8037
:03105200E3AF0207
:011055002278
:080EEB001210EC120EA47FCCE2
:020EF300AD0749
:100EF500E4FBEBC3940874809480502AED5401FA06
:100F0500EDC313FDEA600FC2B70000D2B77F067EBE
:100F1500001210E1800DC2B77F067E001210E1D2EB
:060F2500B700000B80CCB8
:010F2B0022A3
:08114A00120EEB7F44020EF3CC
:06115A001210EC020EA4CD
:100DD100E4FFF9F50EF50F12114A120EEB7FBE1268
:100DE1000EF3121032A907121032EFFE7C00E42933
:100DF100F50FEC3EF50E54F8FEEEB4F821E50FF4D4
:100E0100FFE50EF4FEEF2401F50FE43EF50EFCAD17
:100E11000FE412073DE4FBFA798078BD800FAC0E38
:100E2100AD0FE412073DE4FBFA7980783D120632FA
:100E31008F0D8E0C8D0B8C0AAF0DAE0CAD0BAC0A69
:010E4100228E
:09114100D288D2A8D2AFD2B222AA
:03000300020BCF1E
:100BCF00C0E0C0D075D000C000C002C003C004C0D8
:050BDF0005C006C0077F
:100BE400750800E4FDF50930B203020CC07A037BFA
:100BF400E820B213EB4A600F1210DDEB1B70011AF0
:100C0400EB4A70ED020CC020B203020CA47A017B03
:100C1400F430B213EB4A600F1210DDEB1B70011AB3
:100C2400EB4A70ED020CC07D00EDC3940474809413
:100C340080506D750900C3E5099408748094805050
:100C44005C7A027B5820B212EB4A600E1210DDEB84
:100C54001B70011AEB4A70ED80627A007B1430B28B
:100C6400167F0A7E001210E10508D3E50894147477
:100C740080948040E9804574262DF8C000E6C313B3
:100C8400D000F6C3E5089408748094804008742664
:100C94002DF8E64480F6750800050980990D8089D1
:100CA400E529F4652860157D00EDC39404748094EF
:0C0CB40080500974262DF876000D80EDAC
:100CC000D007D006D005D004D003D002D000D0D0B9
:030CD000D0E0323F
:101122001210D2C2A01210DDC2A17F017E000210F5
:01113200E1DB
:0E113300C2A01210D4D2A07F017E000210E1F3
:0A000E00C2A1C2A01210D4C2A122A8
:08115200C2A11210D2C2A122B9
:0B0F8F00120F5E120F9AAF02120F5EED
:100F9A00E4FDD2A17F01FE1210E130A0110DEDD3C4
:100FAA0094647480948040F21211337F0122C2A1AA
:020FBA007F00B6
:010FBC002212
:020F5E00AD07DD
:100F6000E4FBC2A1EBC39408748094805020ED543C
:100F7000809400748094804004D2A08002C2A0EDCE
:0E0F800025E0FD1210D4C2A11210DD0B80D6A8
:010F8E002240
:020F2C00AD070F
:100F2E00E4FBFAEBC39408748094805015C2A112AE
:100F3E0010DDD2A1EA25E0FA30A0010A1210DD0B75
:0F0F4E0080E1ED7005121152800312000EAF0208
:010F5D002271
:10109800AA05A9071211227FA0120F5E120F9AAF9C
:0E10A80001120F8F1211337F0A7E0002107AA0
:02105600AA07E7
:10105800E4FD1211227FA0120F8F1211227FA1121C
:101068000F5E120F9AE4FF120F2CAD07121133AF67
:011078000572
:011079002254
:100FBD00C2B600E4FEEEC39408748094805018EF1E
:100FCD00C4131313540124FF92B4EF25E0FFC2B6EE
:070FDD0000D2B6000E80DE19
:010FE40022EA
:100FE500E4FFFEC2B600FDEDC3940C7480948050FE
:100FF50016EF25E0FFEE33FED2B600C2B600A2B76B
:07100500E43342070D80E017
:01100C0022C1
:10100D00E4FDFCC2B6C2B5120FBD7F06EFD394004E
:10101D007480948040031F80F3D2B600C2B60012D4
:04102D000FE5D2B544
:01103100229C
:1010FE00438901758A9A758CA9C28DD2A9D28CD2D8
:02110E00AF220E
:10111000438910758B91758DFFC28FD28ED2ABD261
:02112000AF22FC
:10001E00C290E4FF1210568F2C1210FE1211101205
:10002E00114112115A300509300606C2A5D2A6D2C8
:10003E00A7300009300606D2A5C2A6D2A730030902
:10004E00300606D2A5D2A6C2A7E52D1460451470BF
:10005E000302013414700302017C240360030202C4
:10006E000BE570700302020BE4F570F55075511C30
:10007E00F55275531CF55475551CF55675571CF5F0
:10008E005875591CF55A755B1CF55C755D1CF55E53
:10009E00020208E570640160037570017550007509
:1000AE00511BAE60AF617C007D641207F77C007D52
:1000BE000A1207F78C528D53AE60AF617C007D0A39
:1000CE001207F77C007D0A1207F78C548D55AE602F
:1000DE00AF617C007D0A1207F78C568D577558005C
:1000EE00852B59AE4EAF4F7C007D6412084C7C00C0
:1000FE007D0A12084C8C5A8D5BAE4EAF4F7C007D44
:10010E000A12084C7C007D0A12084CED2410F55D95
:10011E00E43CF55CAE4EAF4F7C007D0A12084C8C71
:10012E005E8D5F02020BE5706402600375700275EE
:10013E00500075511A75520075531C755400755543
:10014E001C75560075571C75580075591C755A004C
:10015E00755B1CE52C75F00A84755C00F55DE52C6D
:10016E0075F00A84AFF0755E008F5F02020BE570CA
:10017E0064026009757002755C00755D1C300508BF
:10018E00755000755101800675500075511C300078
:10019E0008755200755301800675520075531C3058
:1001AE000308755400755501800675540075551C6D
:1001BE0030000B30020875560075570180067556D3
:1001CE000075571C30000B30070875580075590123
:1001DE00800675580075591C30000B300108755A91
:1001EE0000755B018006755A00755B1C300808753A
:1001FE005E00755F018006755E00755F1CAE4EAFCA
:10020E004F7C007D0A12084CAD2C7C00ED2401FBC6
:10021E00EC33FAD3EF9BEA6480F8EE648098400AE0
:10022E00300507E4F560F5618061ED24FFFDEC34E7
:10023E00FFFCC3EF9DEC6480F8EE648098500B30A9
:10024E00050875600075613C8041AE4EAF4F7C0075
:10025E007D0A12084CAD2C7C00ED2401FBEC33FA28
:10026E00C3EF9BEA6480F8EE648098501EED24FF85
:10027E00FDEC34FFFCD3EF9DEC6480F8EE648098C7
:10028E00400930050675600075611E30003730027A
:10029E0034C3E52F9432E52E94005007E4F560F553
:1002AE00618022D3E52F94D2E52E940F400875601D
:1002BE0000756164800FAE2EAF2F7C007D64120737
:1002CE00F78E608F6130003D30073AC3E52F94649E
:1002DE00E52E940050087560007561648027D3E5A3
:1002EE002F94E8E52E94034007E4F560F561801540
:1002FE00AE2EAF2F7C007D0A1207F7C374649FF5F4
:10030E0061E49EF560300049300146E52F2424FF5C
:10031E00E52E34FAFEC3EF9464EE94005008756037
:10032E0000756164802BD3EF94F4EE94014007E4E2
:10033E00F560F561801BE52F24C0FFE52E34F9FE34
:10034E007C007D071207F7C3743C9FF561E49EF5B0
:10035E0060AF287E00EF64457013B20620060BC214
:10036E0004F52DC29075A0FF8003752D01EF644436
:10037E004E7007300604B204C290EF64074E700F41
:10038E0030060CE52D64027006AD2CFF121098AFEE
:10039E00287E00EF6446702230061F300508C20525
:1003AE00D200C2038014300008C205C200D20380FE
:1003BE0009300306D205C200C203EF64474E700532
:1003CE00300602B208EF64404E7013300610152C42
:1003DE00D3E52C940E748094805003752C0FE52871
:1003EE0064437013300610052CC3E52C94247480DE
:1003FE0094804003752C23AF287E00EF6415702582
:10040E0030062230001F300708C207D201C2028018
:10041E0014300108C207C201D2028009300206D28E
:10042E0007C201C202EF64094E702230061F300768
:10043E0008C207C201D2028014300108D207C201DD
:10044E00C2028009300206C207D201C202EF64194D
:10045E004E702130061EAF2DFEEF64017005752D16
:10046E00038011EF64034E70028006EF64024E703B
:10047E0003752D01E528640D7006300603752D02F7
:10048E00300670AF287E00EF64167004F560F561DB
:10049E00EF640C4E7005F560756106EF64184E70D2
:1004AE0005F56075610CEF645E4E7005F560756163
:1004BE0012EF64084E7005F560756118EF641C4EFE
:1004CE007005F56075611EEF645A4E7005F5607526
:1004DE006124EF64424E7005F56075612AEF645237
:1004EE004E7005F560756130EF644A4E7005F5602B
:1004FE00756136E4F528E5717003020033300803A8
:10050E000205EEFF7E0064017013300610152CD329
:10051E00E52C940E748094805003752C0FEF6402BA
:10052E004E7006300603752D02E5716403701330AC
:10053E000610052CC3E52C9424748094804003751A
:10054E002C23AF717E00EF64057009300006D207D0
:10055E00C201C202EF64064E702130061EAF2DFEA0
:10056E00EF64017005752D038011EF64034E700268
:10057E008006EF64024E7003752D01E571640770FD
:10058E0009300006C207D201C202AF717E00EF64CD
:10059E00097006D205C200C203EF640A4E700CC287
:1005AE0005D200C203C207C201D202EF640B4E7025
:1005BE0006C205C200D203EF640D4E70073003046D
:1005CE00F560F561EF640E4E7008300305F5607549
:1005DE00611EEF640F4E7008300305F56075613CC7
:1005EE00AF717E00EF64117013B20620060BC204C9
:1005FE00F52DC29075A0FF8003752D01EF64124E8C
:10060E00700F30060CE52D64027006AD2CFF121033
:10061E0098E57164147007300604B204C290E4F5D4
:04062E007102003322
:03000B000209A93E
:1009A900C0E0C0F0C083C082C0D075D000C000C014
:1009B90001C002C003C004C005C006C007758A9AF9
:1009C900758CA9E56F2401F56FE4356EF56EE43594
:1009D9006DF56DE4356CF56C0562E562640A7002CB
:1009E900F562300048E47B05FAF9F8AF6FAE6EADF9
:1009F9006DAC6C1208BEAC00AD01AE02AF03E4FBF6
:100A0900FAF9F8C312095E70243002097F941210B2
:100A19000D8E2E8F2F3001097FD412100D8E2E8F3F
:100A29002F3007097FA412100D8E2E8F2FE47B1E05
:100A3900FAF9F8AF6FAE6EAD6DAC6C1208BEAC00D2
:100A4900AD01AE02AF03E4FBFAF9F8C312095E7017
:100A590030120DD1E4FBFA792078411206321207DF
:100A6900768E4E8F4FC3E54E648094805010C3E458
:100A7900954FF54FE4954EF54E752B1D8003752B5B
:100A89001CE562701A756201120D5F8F73E572655C
:100A990073FF5573F571E573F45FF52A857372D0A9
:100AA90007D006D005D004D003D002D001D000D0A1
:0A0AB900D0D082D083D0F0D0E0321C
:03001B00020AC313
:100AC300C0E0C083C082C0D075D000C000C004C0E5
:050AD30005C006C0078C
:100AD800758B91758DFF0523E52370020522C3945C
:100AE80064E5229400400675220075230020060361
:100AF800020B950525E52570020524C39404E52419
:100B08009400401B752400752500E56B2401F56BE6
:100B1800E4356AF56AE43569F569E43568F568E548
:100B28006B5407FFE4FEFDFC12096F0B6700000021
:100B3800000B6B000000010B6F000000020B73003C
:100B48000000030B77000000040B7F000000050B7A
:100B580087000000060B8F0000000700000B95D2ED
:100B6800A4800ED2A48012D2A48016D2A4801AC265
:100B7800A4D2A3D2A28016C2A4D2A3C2A2800EC2BB
:100B8800A4C2A3D2A28006C2A4C2A3C2A2E56B5487
:100B980007FFEF25E02450F808E62430F8E6F58052
:100BA800300411D3E5239561E52295604004D29085
:040BB8008002C29065
:100BBC00D007D006D005D004D000D0D0D082D083BE
:030BCC00D0E03244
:10063200EC4D6011E8497017ED33EC3304600DE4C2
:10064200FCFFFEFD22E933E8330470F80207E212F0
:1006520007AD58046009E4CC2481500628500902F1
:1006620007EC2840030207E9C0E0EB4A7044B98076
:1006720006D0E0FB0207D8EF4E701CBD8008EBFFEE
:10068200EAFEE9FD80EBE98DF0A4FEE5F002071B2E
:10069200E9CDF9EAFEEBFFEF89F0A4FCE5F0CE89A3
:1006A200F0A42EFFE435F0CD89F0A42DFEE435F060
:1006B2008067EF4E7005BD80D780C3EF8BF0A4AC8E
:1006C200F0EE8BF0A42CFCE435F0F8EF8AF0A42CC9
:1006D200E5F038FCE433CB8DF0A42CFCE5F03BF8DC
:1006E200EE8AF0A42CFCE5F038F8E433CF89F0A4CC
:1006F2002CFCE5F038CF3400CE89F0A42FFFE5F0D2
:100702003EFEE433C98DF0A42EFEE5F039CD8AF029
:10071200A42FFFE5F03EFEE43DFD33D0E0FB5007A1
:100722000BBB000F0207ECEC2CFCEF33FFEE33FEA9
:06073200ED33FD0207C4D7
:1007380075F020800E75F010800575F0087D007E3C
:10074800007F003392D530D503120950EC334010A6
:10075800EF33FFEE33FEED33FDEC33FCD5F0ED2245
:0E076800E5F0247EA2D513CC92E7CDCEFF2281
:10077600EDD2E7CD33EC3392D524814006E4FFFE7B
:10078600FDFC22FCE4CFCECDCC24E0501174FF80DA
:10079600EDC3CC13CCCD13CDCE13CECF13CF047077
:0707A600F030D5DE0209501E
:1007AD00E9D2E7C933E833F892D5EDD2E7CD33EC92
:0707BD0033FC5002B2D5220B
:1007C400EC30E7100FBF000C0EBE00080DBD000496
:1007D4000BEB6014A2D5EB13FCED92E7FD2274FF42
:1007E400FCFDFEFF22E480F8A2D574FF13FC7D809B
:0307F400E480EFAF
:03000000020CD31C
:0C0CD300787FE4F6D8FD758173020D1ADD
:1007F700BC000BBE0029EF8DF084FFADF022E4CCE6
:10080700F875F008EF2FFFEE33FEEC33FCEE9DECAE
:10081700984005FCEE9DFE0FD5F0E9E4CEFD22EDF4
:10082700F8F5F0EE8420D21CFEADF075F008EF2F3E
:10083700FFED33FD4007985006D5F0F222C398FD2F
:050847000FD5F0EA22CC
:10084C00C2D5EC30E709B2D5E4C39DFDE49CFCEEC7
:10085C0030E715B2D5E4C39FFFE49EFE1207F7C341
:10086C00E49DFDE49CFC80031207F730D507C3E43C
:06087C009FFFE49EFE2236
:1008820075F008758200EF2FFFEE33FECD33CDCC2D
:1008920033CCC58233C5829BED9AEC99E5829840B0
:1008A2000CF582EE9BFEED9AFDEC99FC0FD5F0D68D
:1008B200E4CEFBE4CDFAE4CCF9A88222B800C1B9B7
:1008C2000059BA002DEC8BF084CFCECDFCE5F0CBF5
:1008D200F97818EF2FFFEE33FEED33FDEC33FCEB2E
:1008E20033FB10D703994004EB99FB0FD8E5E4F9E9
:1008F200FA227818EF2FFFEE33FEED33FDEC33FCD6
:10090200C933C910D7059BE99A4007EC9BFCE99AC9
:10091200F90FD8E0E4C9FAE4CCFB2275F010EF2F0E
:10092200FFEE33FEED33FDCC33CCC833C810D7070E
:100932009BEC9AE899400AED9BFDEC9AFCE899F849
:0E0942000FD5F0DAE4CDFBE4CCFAE4C8F922DC
:0E095000C3E49FFFE49EFEE49DFDE49CFC22B8
:10095E00EB9FF5F0EA9E42F0E99D42F0E89C45F0EF
:01096E002266
:10096F00D083D082E4937012740193700DA3A3937C
:10097F00F8740193F5828883E4737402936C701298
:10098F007403936D700C7404936E70067405936FFB
:0A099F0060DDA3A3A3A3A3A380CAF5
:100CDF0002001EE493A3F8E493A34003F68001F20D
:100CEF0008DFF48029E493A3F85407240CC8C33316
:100CFF00C4540F4420C8834004F456800146F6DFE5
:100D0F00E4800B0102040810204080900E42E47E24
:100D1F00019360BCA3FF543F30E509541FFEE493D9
:100D2F00A360010ECF54C025E060A840B8E493A3A0
:100D3F00FAE493A3F8E493A3C8C582C8CAC583CACB
:100D4F00F0A3C8C582C8CAC583CADFE9DEE780BE83
:010EA300004E
:00000001FF
